:100000000C945D000C9485000C9485000C94850084
:100010000C9485000C9485000C9485000C9485004C
:100020000C9485000C9485000C9485000C9485003C
:100030000C9485000C9485000C9485000C9485002C
:100040000C9428030C9485000C9485000C94850076
:100050000C9485000C9485000C9485000C9485000C
:100060000C9485000C94850000000008000201003B
:100070000003040700000000000000000000000072
:10008000250028002B0000000000240027002A0083
:10009000040404040404040402020202020203032E
:1000A0000303030301020408102040800102040836
:1000B0001020010204081020CA0411241FBECFEF33
:1000C000D8E0DEBFCDBF11E0A0E0B1E0E4EEF9E0A2
:1000D00002C005900D92AE33B107D9F722E0AEE32E
:1000E000B1E001C01D92A93AB207E1F710E0CDE5F9
:1000F000D0E004C02197FE010E94EA04CC35D1076C
:10010000C9F70E9472030C94F0040C94000090E074
:10011000FC01EC55FF4F249180579F4FFC018491C7
:10012000882399F090E0880F991FFC01EA57FF4F50
:10013000A591B491FC01E458FF4F859194918FB73C
:10014000F894EC91E22BEC938FBF089590E0FC01C2
:10015000E859FF4F2491FC01EC55FF4F3491FC010D
:10016000E057FF4FE491EE23C9F0222339F023300A
:1001700001F1A8F4213019F1223029F1F0E0EE0F5D
:10018000FF1FE458FF4FA591B4918FB7F894EC91FD
:10019000611126C030953E233C938FBF08952730D0
:1001A000A9F02830C9F0243049F7809180008F7D74
:1001B00003C0809180008F7780938000DFCF84B56B
:1001C0008F7784BDDBCF84B58F7DFBCF8091B0006E
:1001D0008F778093B000D2CF8091B0008F7DF9CF20
:1001E0003E2BDACF3FB7F8948091A5029091A602FA
:1001F000A091A702B091A80226B5A89B05C02F3FE9
:1002000019F00196A11DB11D3FBFBA2FA92F982F3C
:100210008827BC01CD01620F711D811D911D42E037
:10022000660F771F881F991F4A95D1F708954F923F
:100230005F926F927F928F929F92AF92BF92CF9276
:10024000DF92EF92FF920F931F93CF93DF9300D033
:10025000CDB7DEB78C0149832A83660F771FF8017B
:10026000EA5AFF4FE080F180EE0CFF1CF801CF014D
:10027000801B910B8E159F0514F41192F8CF898184
:10028000F801E60FF71F81838A818083680184E586
:10029000C80ED11C60E0F60180810E94A6005801C2
:1002A000F2E5AF0EB11C480180E5880E911C1E14CA
:1002B0001F040CF5E1E0EE1AF108F801EE0DFF1D48
:1002C0006080F5015080F401408088E0782E662D32
:1002D000661F6627661F842D0E94A600660C61E0DB
:1002E000852D0E94A60060E0852D0E94A6007A94CC
:1002F0007110EDCFDCCF61E0F60180810F900F909F
:10030000DF91CF911F910F91FF90EF90DF90CF90F1
:10031000BF90AF909F908F907F906F905F904F9025
:100320000C94A6007F928F929F92AF92BF92CF9231
:10033000DF92EF92FF920F931F93CF93DF935C01B5
:1003400026E5A20EB11CF50120813181121613069B
:1003500094F56C0180E890E002C0959587956A95C8
:10036000E2F7882E982E9094E60107E010E0E42E44
:10037000F12C88E0782EF5018081918118161906FC
:10038000A4F498899701002E02C0359527950A9408
:10039000E2F720FF1EC09829988B2889472D401B23
:1003A00070E060E0C6010E9417010150110921961A
:1003B0000F3F100701F7DF91CF911F910F91FF9031
:1003C000EF90DF90CF90BF90AF909F908F907F90F5
:1003D00008959921E1CF0F931F93CF93DF93CDB76A
:1003E000DEB7A1960EAD1FADA197F801EE0FFF1F6E
:1003F000E050FF4F408170E060E0CE0107960E9420
:100400009201F801EE0FFF1FEE5FFE4F408161E0A9
:1004100070E0CE0107960E949201F801EE0FFF1FD7
:10042000EC5FFE4F408162E070E0CE0107960E94D3
:100430009201F801EE0FFF1FEA5FFE4F408163E07B
:1004400070E0CE0107960E949201F801EE0FFF1FA7
:10045000E85FFE4F408164E070E0CE0107960E94A5
:100460009201F801EE0FFF1FE65FFE4F408165E04D
:1004700070E0CE0107960E949201F801EE0FFF1F77
:10048000E45FFE4F408166E070E0CE0107960E9477
:100490009201000F111FF801E25FFE4F408167E0FB
:1004A00070E0CE0107960E949201DF91CF911F91DB
:1004B0000F910895FC01EA5AFF4F208131811216F5
:1004C000130634F428E04AE070E060E00C94170171
:1004D0000895DF92EF92FF920F931F93CF93DF93D4
:1004E000FC01EA5AFF4F2081318162177307C4F47F
:1004F0007B018C01EB0183E0CC0FDD1F8A95E1F7D6
:100500006096C00FD11FDD24D394199220E04D2DA9
:10051000B701C8010E941701D39489E0D812F5CF22
:10052000DF91CF911F910F91FF90EF90DF90089591
:10053000FC01EA5AFF4F20813181621773073CF4B6
:1005400020E0411101C021E04CE00C941701089516
:100550008F929F92AF92BF92CF92DF92EF92FF92D3
:100560000F931F93CF93DF93EC01D62EC72E8C01F0
:10057000005B1F4FF801608371834C01F2E58F0E21
:10058000911C8DE090E0F401918380835E01F4E59D
:10059000AF0EB11CF501518340837E01F6E5EF0EED
:1005A000F11C81E090E0F70191838083862F0E9407
:1005B0008700F40180810E948700F50180810E94FC
:1005C000870061E0F50180810E94A600F801D082D9
:1005D000C182E054F10911920E171F07E1F710E0F4
:1005E00000E0F701808191810817190724F520E0C8
:1005F0004FE0B801CE010E941701F701808191817F
:100600000817190734F427E04BE0B801CE010E9427
:10061000170120E049E0B801CE010E941701B8019E
:10062000CE010E94690241E0B801CE010E94980209
:100630000F5F1F4FD6CFDF91CF911F910F91FF908A
:10064000EF90DF90CF90BF90AF909F908F900895E4
:100650001F920F920FB60F9211242F933F938F93F7
:100660009F93AF93BF938091A1029091A202A0911A
:10067000A302B091A4023091A00223E0230F2D37F2
:1006800058F50196A11DB11D2093A0028093A102EF
:100690009093A202A093A302B093A4028091A5021A
:1006A0009091A602A091A702B091A8020196A11D67
:1006B000B11D8093A5029093A602A093A702B093C8
:1006C000A802BF91AF919F918F913F912F910F9071
:1006D0000FBE0F901F90189526E8230F0296A11DBC
:1006E000B11DD2CF789484B5826084BD84B5816019
:1006F00084BD85B5826085BD85B5816085BD8091ED
:100700006E00816080936E00109281008091810064
:10071000826080938100809181008160809381005C
:10072000809180008160809380008091B10084601E
:100730008093B1008091B00081608093B00080917F
:100740007A00846080937A0080917A00826080933E
:100750007A0080917A00816080937A0080917A009B
:10076000806880937A001092C10040E070E060E001
:100770008EE391E00E9498028EE391E00E945A027B
:1007800070E060E08EE391E00E94690240E070E07A
:1007900060E086E492E00E94980286E492E00E9483
:1007A0005A0270E060E086E492E00E94690240E054
:1007B00070E060E08EEE91E00E9498028EEE91E093
:1007C0000E945A0270E060E08EEE91E00E946902A1
:1007D00040E070E060E086E991E00E94980286E9DE
:1007E00091E00E945A0270E060E086E991E00E9488
:1007F000690200E010E0C0919E02D0919F02DF9359
:10080000CF938DB79EB7885591090FB6F8949EBFC8
:100810000FBE8DBFADB7BEB7119688E5E6E4F2E036
:1008200001900D928A95E1F70E94EB018DB79EB77A
:10083000865A9F4F0FB6F8949EBF0FBE8DBFC8302B
:10084000D1050CF473C0CE0108979F938F938DB799
:100850009EB7885591090FB6F8949EBF0FBE8DBF05
:10086000ADB7BEB7119688E5EEEEF1E001900D92BE
:100870008A95E1F70E94EB018DB79EB7865A9F4F8C
:100880000FB6F8949EBF0FBE8DBFC031D1050CF4DA
:100890004DC0CE0140979F938F938DB79EB78855DB
:1008A00091090FB6F8949EBF0FBE8DBFADB7BEB70E
:1008B000119688E5E6E9F1E001900D928A95E1F75D
:1008C0000E94EB018DB79EB7865A9F4F0FB6F894E2
:1008D0009EBF0FBE8DBFC831D10544F1CE014897F0
:1008E0009F938F938DB79EB7885591090FB6F89453
:1008F0009EBF0FBE8DBFADB7BEB7119688E5EEE3C4
:10090000F1E001900D928A95E1F70E94EB018DB71D
:100910009EB7865A9F4F0FB6F8949EBF0FBE8DBFED
:10092000EF9724F010929F0210929E0280919E02F7
:1009300090919F02019690939F0280939E020E9445
:10094000F2004B015C0188ECC82ED12CE12CF12C7B
:100950000E94F200681979098A099B09683E734070
:1009600081059105A8F391E0C91AD108E108F108C1
:1009700028EE820E23E0921EA11CB11CC114D104EA
:10098000E104F10429F70115110509F434CF0E949F
:10099000000031CF4AE050E06BE070E086E492E086
:1009A0000E94A80247E050E068E070E08EEE91E01F
:1009B0000E94A80244E050E065E070E086E991E022
:1009C0000E94A80241E050E062E070E08EE391E016
:1009D0000C94A802EE0FFF1F0590F491E02D0994EE
:0409E000F894FFCFB9
:1009E40000000000000000000000000000003E00C5
:1009F400080008003E0000003E002A002A002200F1
:100A040000003E0002000200000000003E00020060
:0E0A14000200000000001C00220022001C0056
:00000001FF
